:020000000000fe
:020001000019e4
:020002000032ca
:02000300004bb0
:02000400006595
:02000500007e7b
:02000600009761
:0200070000b047
:0200080000c92d
:0200090000e213
:02000a0000fbf9
:02000b000114de
:02000c00012dc4
:02000d000147a9
:02000e0001608f
:02000f00017975
:0200100001925b
:0200110001ab41
:0200120001c427
:0200130001dd0d
:0200140001f6f3
:02001500020fd8
:020016000228be
:020017000242a3
:02001800025b89
:0200190002746f
:02001a00028d55
:02001b0002a63b
:02001c0002bf21
:02001d0002d807
:02001e0002f1ed
:02001f00030ad2
:020020000323b8
:02002100033c9e
:02002200035584
:02002300036e6a
:02002400038750
:0200250003a036
:0200260003b91c
:0200270003d202
:0200280003ebe8
:020029000404cd
:02002a00041db3
:02002b0004359a
:02002c00044e80
:02002d00046766
:02002e0004804c
:02002f00049932
:0200300004b218
:0200310004cbfe
:0200320004e4e4
:0200330004fccb
:020034000515b0
:02003500052e96
:0200360005477c
:02003700056062
:02003800057849
:0200390005912f
:02003a0005aa15
:02003b0005c3fb
:02003c0005dbe2
:02003d0005f4c8
:02003e00060dad
:02003f00062594
:02004000063e7a
:02004100065760
:02004200066f47
:0200430006882d
:0200440006a014
:0200450006b9fa
:0200460006d2e0
:0200470006eac7
:020048000703ac
:02004900071b93
:02004a00073479
:02004b00074c60
:02004c00076546
:02004d00077d2d
:02004e00079514
:02004f0007aefa
:0200500007c6e1
:0200510007dfc7
:0200520007f7ae
:02005300080f94
:0200540008287a
:02005500084061
:02005600085848
:0200570008702f
:02005800088915
:0200590008a1fc
:02005a0008b9e3
:02005b0008d1ca
:02005c0008e9b1
:02005d00090197
:02005e00091a7d
:02005f00093264
:02006000094a4b
:02006100096232
:02006200097a19
:02006300099200
:0200640009aae7
:0200650009c2ce
:0200660009dab5
:0200670009f19d
:020068000a0983
:020069000a216a
:02006a000a3951
:02006b000a5138
:02006c000a691f
:02006d000a8007
:02006e000a98ee
:02006f000ab0d5
:020070000ac7bd
:020071000adfa4
:020072000af78b
:020073000b0e72
:020074000b2659
:020075000b3d41
:020076000b5528
:020077000b6c10
:020078000b84f7
:020079000b9bdf
:02007a000bb3c6
:02007b000bcaae
:02007c000be196
:02007d000bf97d
:02007e000c1064
:02007f000c274c
:020080000c3f33
:020081000c561b
:020082000c6d03
:020083000c84eb
:020084000c9bd3
:020085000cb2bb
:020086000cc9a3
:020087000ce08b
:020088000cf773
:020089000d0e5a
:02008a000d2542
:02008b000d3c2a
:02008c000d5312
:02008d000d6afa
:02008e000d81e2
:02008f000d97cb
:020090000daeb3
:020091000dc59b
:020092000ddb84
:020093000df26c
:020094000e0953
:020095000e1f3c
:020096000e3624
:020097000e4c0d
:020098000e63f5
:020099000e79de
:02009a000e90c6
:02009b000ea6af
:02009c000ebc98
:02009d000ed380
:02009e000ee969
:02009f000eff52
:0200a0000f153a
:0200a1000f2b23
:0200a2000f410c
:0200a3000f58f4
:0200a4000f6edd
:0200a5000f84c6
:0200a6000f9aaf
:0200a7000faf99
:0200a8000fc582
:0200a9000fdb6b
:0200aa000ff154
:0200ab0010073c
:0200ac00101c26
:0200ad0010320f
:0200ae001048f8
:0200af00105de2
:0200b0001073cb
:0200b1001089b4
:0200b200109e9e
:0200b30010b388
:0200b40010c971
:0200b50010de5b
:0200b60010f444
:0200b70011092d
:0200b800111e17
:0200b900113301
:0200ba001149ea
:0200bb00115ed4
:0200bc001173be
:0200bd001188a8
:0200be00119d92
:0200bf0011b27c
:0200c00011c766
:0200c10011dc50
:0200c20011f03b
:0200c300120524
:0200c400121a0e
:0200c500122ff8
:0200c6001243e3
:0200c7001258cd
:0200c800126cb8
:0200c9001281a2
:0200ca0012958d
:0200cb0012aa77
:0200cc0012be62
:0200cd0012d34c
:0200ce0012e737
:0200cf0012fb22
:0200d000130f0c
:0200d1001324f6
:0200d2001338e1
:0200d300134ccc
:0200d4001360b7
:0200d5001374a2
:0200d60013888d
:0200d700139c78
:0200d80013af64
:0200d90013c34f
:0200da0013d73a
:0200db0013eb25
:0200dc0013fe11
:0200dd001412fb
:0200de001425e7
:0200df001439d2
:0200e000144cbe
:0200e1001460a9
:0200e200147395
:0200e300148681
:0200e400149a6c
:0200e50014ad58
:0200e60014c044
:0200e70014d330
:0200e80014e61c
:0200e90014f908
:0200ea00150cf3
:0200eb00151fdf
:0200ec001532cb
:0200ed001545b7
:0200ee001557a4
:0200ef00156a90
:0200f000157d7c
:0200f100158f69
:0200f20015a255
:0200f30015b442
:0200f40015c72e
:0200f50015d91b
:0200f60015ec07
:0200f70015fef4
:0200f8001610e0
:0200f9001622cd
:0200fa001634ba
:0200fb001646a7
:0200fc00165894
:0200fd00166a81
:0200fe00167c6e
:0200ff00168e5b
:00000001FF
