:020000001fffe0
:020001001fffdf
:020002001fffde
:020003001fffdd
:020004001ffedd
:020005001ffedc
:020006001ffedb
:020007001ffddb
:020008001ffdda
:020009001ffcda
:02000a001ffbda
:02000b001ffada
:02000c001ff9da
:02000d001ff8da
:02000e001ff7da
:02000f001ff6da
:020010001ff5da
:020011001ff4da
:020012001ff3da
:020013001ff1db
:020014001ff0db
:020015001feedc
:020016001fecdd
:020017001febdd
:020018001fe9de
:020019001fe7df
:02001a001fe5e0
:02001b001fe3e1
:02001c001fe1e2
:02001d001fdfe3
:02001e001fdce5
:02001f001fdae6
:020020001fd8e7
:020021001fd5e9
:020022001fd2eb
:020023001fd0ec
:020024001fcdee
:020025001fcaf0
:020026001fc7f2
:020027001fc4f4
:020028001fc1f6
:020029001fbef8
:02002a001fbbfa
:02002b001fb8fc
:02002c001fb4ff
:02002d001fb101
:02002e001fae03
:02002f001faa06
:020030001fa609
:020031001fa30b
:020032001f9f0e
:020033001f9b11
:020034001f9714
:020035001f9317
:020036001f8f1a
:020037001f8b1d
:020038001f8621
:020039001f8224
:02003a001f7e27
:02003b001f792b
:02003c001f752e
:02003d001f7032
:02003e001f6b36
:02003f001f663a
:020040001f623d
:020041001f5d41
:020042001f5845
:020043001f5349
:020044001f4d4e
:020045001f4852
:020046001f4356
:020047001f3d5b
:020048001f385f
:020049001f3264
:02004a001f2d68
:02004b001f276d
:02004c001f2172
:02004d001f1c76
:02004e001f167b
:02004f001f1080
:020050001f0a85
:020051001f038b
:020052001efd91
:020053001ef796
:020054001ef19b
:020055001eeaa1
:020056001ee4a6
:020057001eddac
:020058001ed6b2
:020059001ed0b7
:02005a001ec9bd
:02005b001ec2c3
:02005c001ebbc9
:02005d001eb4cf
:02005e001eadd5
:02005f001ea6db
:020060001e9ee2
:020061001e97e8
:020062001e90ee
:020063001e88f5
:020064001e81fb
:020065001e7902
:020066001e7109
:020067001e6910
:020068001e6216
:020069001e5a1d
:02006a001e5224
:02006b001e4a2b
:02006c001e4133
:02006d001e393a
:02006e001e3141
:02006f001e2948
:020070001e2050
:020071001e1857
:020072001e0f5f
:020073001e0667
:020074001dfe6f
:020075001df577
:020076001dec7f
:020077001de387
:020078001dda8f
:020079001dd197
:02007a001dc89f
:02007b001dbfa7
:02007c001db5b0
:02007d001dacb8
:02007e001da3c0
:02007f001d99c9
:020080001d8fd2
:020081001d86da
:020082001d7ce3
:020083001d72ec
:020084001d68f5
:020085001d5ffd
:020086001d5506
:020087001d4a10
:020088001d4019
:020089001d3622
:02008a001d2c2b
:02008b001d2135
:02008c001d173e
:02008d001d0c48
:02008e001d0251
:02008f001cf75c
:020090001ced65
:020091001ce26f
:020092001cd779
:020093001ccc83
:020094001cc18d
:020095001cb697
:020096001caba1
:020097001ca0ab
:020098001c94b6
:020099001c89c0
:02009a001c7eca
:02009b001c72d5
:02009c001c67df
:02009d001c5bea
:02009e001c4ff5
:02009f001c44ff
:0200a0001c380a
:0200a1001c2c15
:0200a2001c2020
:0200a3001c142b
:0200a4001c0836
:0200a5001bfc42
:0200a6001bf04d
:0200a7001be359
:0200a8001bd764
:0200a9001bca70
:0200aa001bbe7b
:0200ab001bb187
:0200ac001ba592
:0200ad001b989e
:0200ae001b8baa
:0200af001b7fb5
:0200b0001b72c1
:0200b1001b65cd
:0200b2001b58d9
:0200b3001b4be5
:0200b4001b3df2
:0200b5001b30fe
:0200b6001b230a
:0200b7001b1616
:0200b8001b0823
:0200b9001afb30
:0200ba001aed3d
:0200bb001ae049
:0200bc001ad256
:0200bd001ac463
:0200be001ab670
:0200bf001aa87d
:0200c0001a9b89
:0200c1001a8d96
:0200c2001a7fa3
:0200c3001a70b1
:0200c4001a62be
:0200c5001a54cb
:0200c6001a46d8
:0200c7001a37e6
:0200c8001a29f3
:0200c9001a1a01
:0200ca001a0c0e
:0200cb0019fd1d
:0200cc0019ee2b
:0200cd0019e038
:0200ce0019d146
:0200cf0019c254
:0200d00019b362
:0200d10019a470
:0200d20019957e
:0200d30019868c
:0200d40019779a
:0200d5001967a9
:0200d6001958b7
:0200d7001949c5
:0200d8001939d4
:0200d900192ae2
:0200da00191af1
:0200db00190bff
:0200dc0018fb0f
:0200dd0018eb1e
:0200de0018db2d
:0200df0018cc3b
:0200e00018bc4a
:0200e10018ac59
:0200e200189c68
:0200e300188c77
:0200e400187b87
:0200e500186b96
:0200e600185ba5
:0200e700184bb4
:0200e800183ac4
:0200e900182ad3
:0200ea001819e3
:0200eb001809f2
:0200ec0017f803
:0200ed0017e812
:0200ee0017d722
:0200ef0017c632
:0200f00017b542
:0200f10017a452
:0200f200179362
:0200f300178272
:0200f400177182
:0200f500176092
:0200f600174fa2
:0200f700173eb2
:0200f800172cc3
:0200f900171bd3
:0200fa00170ae3
:0200fb0016f8f5
:0200fc0016e705
:0200fd0016d516
:0200fe0016c327
:0200ff0016b237
:00000001FF
