:020000040800F2
:10000000F8080020D50200080F4300081D41000831
:100010000D4300080B2A00085148000800000000AA
:100020000000000000000000000000001343000872
:10003000C92A000800000000114300081543000809
:10004000EF020008EF020008EF020008EF020008CC
:10005000EF020008EF020008EF020008EF020008BC
:10006000EF020008EF020008EF020008EF020008AC
:10007000EF020008EF020008EF020008EF0200089C
:100080000D2A0008EF020008EF020008EF02000846
:10009000EF020008EF020008EF020008EF0200087C
:1000A000EF020008EF020008EF020008EF0200086C
:1000B000EF020008EF020008EF020008EF0200085C
:1000C000EF020008EF020008EF020008EF0200084C
:1000D000EF0200083948000845480008EF02000810
:1000E000EF020008EF020008EF020008EF0200082C
:1000F000EF020008EF020008EF020008EF0200081C
:10010000EF020008EF020008EF020008EF0200080B
:10011000EF020008EF020008EF020008EF020008FB
:10012000EF020008EF020008192A0008EF02000899
:10013000EF020008EF020008EF020008EF020008DB
:10014000EF020008EF020008EF020008EF020008CB
:10015000EF020008EF020008EF020008EF020008BB
:10016000EF020008EF020008EF020008EF020008AB
:10017000EF020008EF020008EF0200080000000094
:10018000EF020008EF02000800F002F800F092F819
:100190000AA090E8000C82448344AAF10107DA45E2
:1001A00001D100F087F8AFF2090EBAE80F0013F0A2
:1001B000010F18BFFB1A43F0010318472461000028
:1001C00044610000103A24BF78C878C1FAD85207B9
:1001D00024BF30C830C144BF04680C6070470000C1
:1001E0000023002400250026103A28BF78C1FBD840
:1001F000520728BF30C148BF0B6070476E2900F01E
:100200002183702900F09186662905F066866529AC
:1002100005F06386672905F06086612905F05F8631
:1002200003681B0A28BF41F08001692900F0CE82D3
:10023000642900F0CB82752900F0C8826F2900F094
:100240001E86782900F05D86E92900F0B985E42949
:1002500000F0B685F52900F0B385EF2900F01B8684
:10026000F82900F05C860368DB0928BF41F08001B3
:10027000632900F03A85732900F03F85E32901F0F6
:100280002981F32901F02E81002070471FB505F068
:100290006CFD00F0ABFE04000020002105F0BCF86E
:1002A000401C60600020002105F0CCF8E0601FBD1C
:1002B00010B510BD01F0CCF91146FFF7E7FF04F0CF
:1002C00077FF01F075FC03B4FFF7F2FF03BC01F008
:1002D000B9FC00000948804709480047FEE7FEE7EF
:1002E000FEE7FEE7FEE7FEE7FEE7FEE7FEE7FEE7E6
:1002F00004480549054A064B70470000AD43000815
:1003000089010008F8020020F8080020F804002005
:10031000F804002053EA020C00F069802DE9F04B4C
:100320004FF00006002B1FBFB3FA83F503FA05F464
:1003300024FA05F65E4012BF1643B2FA82F502FABD
:1003400005F4C5F120051EBF22FA05FC44EA0C04A1
:10035000203556EA044C4FEA144418BF641C4FF091
:1003600000084FF00009904271EB030C39D30029CB
:1003700019BFB1FA81F701FA07F6B0FA80F700FA6F
:1003800007F6C7F120071EBF20FA07FC46EA0C0655
:100390002037B6FBF4FCA7EB0507103F07F01F0B57
:1003A000CBF120060CFA0BFB2CFA06F644BFB34641
:1003B0000026202FA4BF5E464FF0000B5BEA060C20
:1003C00008BF4FF0010B19EB0B09ABFB027C48EBAC
:1003D0000608C01B06FB02CC0BFB03CC71EB0C0127
:1003E000C1E70B46024641464846BDE8F08B13B5CF
:1003F0004FF000004FF00001AFF30080BDE81C405B
:10040000704700007CB51D4616460C00009001D0D8
:100410002044401E074B7B442A46694601903046E3
:1004200000F039FC05461CB10020694600F046FC8E
:1004300028467CBDAD0800000FB41CB5084B06AAC9
:100440007B4469460090059800F025FC0446002096
:10045000694600F033FC20461CBC5DF814FB00002C
:100460007908000070B50C460546012A05D02878A9
:10047000800600D5EA69002302E0012305E05B1C49
:10048000934202D2E05C0028F9D1A869E618C01AAC
:10049000A861286A18442862284600F05EF904E042
:1004A000D5E9012114F8010B9047B442F8D328464E
:1004B00000F069F970BD00002DE9F05F894604463F
:1004C0004FF0000ADFF874B1FB44C0F820A02046CA
:1004D000E1688847002874D0252806D0D4E9012196
:1004E0009047206A401C2062F1E700265F462046C4
:1004F000E16888472028054607DB312D05D27819A9
:1005000010F8200C08B10643F1E7B00701D526F03A
:100510000406C4F81CA00027C4F818A02A2D09D08E
:10052000284604F014FC38B304EB8708303DC8F8C3
:10053000185019E059F8041B204604EB870291611A
:10054000E1688847012F054618D1E069002820DAC4
:1005500026F020061DE0D8F8180000EB800005EB1F
:1005600040003038C8F818002046E1688847054642
:1005700004F0EDFB0028EED1012F0AD02E2D08D17A
:100580002046E16888477F1C0546022F46F020067A
:10059000C4DBA069002803DA404246F00106A061EE
:1005A000F00701D026F010066C2D0BD0682D09D075
:1005B0004C2D39D06A2D35D0742D35D07A2D33D0CD
:1005C00016E038E0E1682F4620468847B8420546E5
:1005D00009D16C2F26D04FF48060E1680643204695
:1005E0008847054604E06C2F1AD04FF4807006430C
:1005F0000DB3A5F14100192802D8203546F4006654
:100600004A462946204626604E46FFF7F7FD80B150
:1006100001280BD0F61D26F0070000F1080956E767
:100620004020E4E78020D8E70020D6E706F104095F
:100630004DE7284652E7206ABDE8F09F145D0000B0
:1006400040EA010370B59B072ED14FF00136042A12
:100650002AD308C810C99D1B9D43121F15EAC61551
:1006600017D0D8B2E1B2401A50EA056110D198B261
:10067000A1B2401A50EA05410AD123F07F4024F08C
:100680007F41401A50EA052102D1180EA0EB1460F8
:1006900070BDA342DBD018BA21BA884201D901202B
:1006A00070BD4FF0FF3070BD0AB9002070BD10F86A
:1006B000013B11F8014B63B1A3420AD1521E08D08D
:1006C00010F8013B11F8014B1BB1A34201D1521E9E
:1006D000EDD1181B70BD4FF0000200B513469446D3
:1006E0009646203922BFA0E80C50A0E80C50B1F18A
:1006F0002001BFF4F7AF090728BFA0E80C5048BF9E
:100700000CC05DF804EB890028BF40F8042B08BF3B
:10071000704748BF20F8022B11F0804F18BF00F837
:10072000012B7047704770477047000010B500F00C
:100730005DFC001D10BD00BFE14C0000004870478B
:100740009402002010B5FFF7F9FF006810BD10B546
:100750000446FFF7F3FF046010BD70B504468569D9
:100760000068C10601D5302600E02026C00707D06A
:1007700070BDD4E9012130469047206A401C2062B8
:100780006D1EF6D570BD70B5044685690078C0074A
:1007900007D170BDD4E9012120209047206A401C78
:1007A00020626D1EF6D570BD09684A0501D540B2BC
:1007B0007047C905FCD500B2704709684A0501D5E4
:1007C000C0B27047C905FCD580B270472DE9F04131
:1007D0000646002410687529314616A510D0FFF78B
:1007E000E3FF002802DA404213A507E031688A07D8
:1007F00001D512A502E0490704D511A5012401E0A5
:10080000FFF7DBFF00210A2206F1240709E0B0FB15
:10081000F2FCB0FBF2F302FB1C00303078541846B7
:10082000491C0028F3D123462A463046BDE8F04152
:1008300000F02EBC000000002D0000002B00000086
:100840002000000011680268006A530501D5087095
:100850000AE0D30501D5088006E0130603D5C217C8
:10086000C1E9000200E008600120704770472DE9EF
:10087000FF4F0C461E464FF0FF378BB0D2E9000108
:10088000DDF860800A908A46C1F30A5505B93D46F5
:10089000002108464FF00000BAF1000F00F44000BC
:1008A00005DA00EB80004FF4400101EA50004FEA06
:1008B0009059B9F1010F00DDB9460A9850EA4A0093
:1008C0000ED044F61050A5F2FF3545432F14B8F171
:1008D000000F1ED07542291E1EDDC9F100021CE06A
:1008E000B8F1010F4FF0000001D0302103E0F243D6
:1008F00005E02154401CB042FBDB304600220021C1
:1009000021540B99C1F80880C1E900200FB0BDE85F
:10091000F08FBD1B6D1CDEE74A4600DA694206A86F
:1009200000F004FE06AB93E8070003AB83E8070082
:1009300050460A9901F0CAFB8DE80700A0F5005067
:100940001F3800900398002D0ADD42F21F014A462D
:100950000844002303A90390684601F075FE09E0EE
:10096000A0F500504A461F38002303A903906846AB
:1009700001F094FE8DE807000004000C03D04FF056
:10098000FF30410800E01046B8F1000F03D000220C
:10099000009215461EE0751E05D400F02BFB303288
:1009A00062556D1EF9D5B3460122084302D00022DC
:1009B0007F1C04E02078302801D100227F1E002A0D
:1009C000099784D01DE0112D07DA00F013FB3032B7
:1009D00062556D1C50EA0102F5D1084302D000981F
:1009E000C8B10EE00021681E05E0235C625C635420
:1009F0002254401E491C8142F7DBAB46A81B401E17
:100A00000990002004F80B000B98099AC0F80880A0
:100A1000C0E9002B7AE711264FF0000857E72DE9CF
:100A2000F04F88460446D21D22F0070191B0D1E96B
:100A30000001CDE90A0103F00CFF02460B98C00F3C
:100A400001D02D2007E02068810701D52B2002E08E
:100A5000202101EAC000032A099001D0072A05DB02
:100A600003464146204600F0EBFC0BE1207880066F
:100A700001D5E06900E00620B8F1650F814606D097
:100A8000B8F1660F18D0B8F1670F70D131E00020CF
:100A9000B9F1110F009001DB112301E009F101030D
:100AA0000AAA01A90CA8FFF7E2FEDDE90C700026F6
:100AB00009F10105834647E001204B4600904FF0C5
:100AC00000470AAA01A90CA8FFF7D1FEDDE90DB085
:100AD0000C995D46002610B909F101000D18B9EB1B
:100AE000050003D4C0F1FF3609F10105A5EB0900AB
:100AF0002BE0B9F1010F01DA4FF001090020B9F143
:100B0000110F0090484601DD112300E003460AAAB8
:100B100001A90CA8FFF7ABFEDDE90C704D460026DD
:100B20008346207800070AD4AB4500DA5D4601A869
:100B3000012D04DD411911F8011C302907D04F4562
:100B400002DA17F1040F04DA012082460FE06D1E6D
:100B5000EEE7002F02DCED1B3E4403E0781CA842C8
:100B600000DD7D1CB81B00F1010A4FF00047207822
:100B7000000703D4AA4501DB4FF0FF3A0021B7F18B
:100B8000004F0DF143088DF8431024D002202B2391
:100B9000002F01DA7F422D230A21021EA0F101005D
:100BA00000DC5FB197FBF1FC97FBF1F201FB1C7CD1
:100BB00017460CF1300C08F801CDEEE7A8F1010062
:100BC00003702188090501D5452100E06521A0F1C8
:100BD000010800F8011C09980FA9A1EB0807FF1DE7
:100BE00000B10120411901EBEA70A1693844081AEB
:100BF000401EA0612078C00602D42046FFF7ADFD5C
:100C0000099828B1D4E901219047206A401C20624C
:100C10002078C00622D52046FFF79FFD1EE0002E5B
:100C200004DBB34502DD01A8805D00E03020D4E99B
:100C300001219047206A401C2062761CAAF1010025
:100C40005FEA000A0AD100F0D1F9C0680168405C8F
:100C5000D4E901219047206A401C2062281EA5F19A
:100C60000105DCDC07E0D4E9012118F8010B90470D
:100C7000206A401C2062381EA7F10107F3DC2046E1
:100C8000FFF781FD032011B041E6000001694A1C15
:100C900002610878704700B58FB0CDE901310021BD
:100CA000059105497944CDE9031011466846FFF7DF
:100CB00003FC0FB000BD0000E5FFFFFF0A6802F86B
:100CC000010B0A607047D1E900239A4202D2531CFB
:100CD0000B601070704710B5436913B1AFF300801B
:100CE00001E0FFF7BFFB012010BD127800F12401E5
:100CF0000A7000224A700122EDE711684FF0FF32BE
:100D0000E9E700002DE9FF5F15468A460446DFF853
:100D1000AC80F8440027D8E900103E46CDE9001029
:100D200010E03AF816106A4602A800F071FC411C67
:100D300007D02178890603D5E269391891420DD888
:100D40000744761C2078800602D5E069B84205DDAC
:100D5000AE42E6DB3AF816000028E2D1A069C01BDB
:100D6000A0612046FFF7F9FCD8E90010CDE900109A
:100D7000002017E03AF818106A4602A800F048FC74
:100D8000B0F1FF3F81460BD000250DF1080B05E0C7
:100D9000D4E901211BF8050090476D1C4D45F7D3A0
:100DA00008F10100B0428046E4DB206A384420624A
:100DB0002046FFF7E8FCBDE8FF9F0000DE5400007E
:100DC0002DE9F0418046D21D22F007020025D2E92C
:100DD0000002F52915A614D0011E72F1000106DAF1
:100DE0000023D0EB030063EB020211A608E0D8F861
:100DF00000108B0701D50FA602E0490701D50EA60A
:100E000001251146002408F1240704E000F0F2F85F
:100E100030323A55641C50EA0102F7D12B46324673
:100E200021464046BDE8F04100F032B90000000024
:100E30002D0000002B0000002000000030B4002135
:100E400000F1240408E002F00705D208303542EA38
:100E50004372DB086554491C52EA0305F3D1046868
:100E6000002310A2250707D5A40600D421B1C46928
:100E700001230DA2641EC46130BC00F009B910B595
:100E8000044621461068FFF798FC02462046BDE85C
:100E900010400023D2E7D21D22F00701D1E9002340
:100EA000CCE700000000000030000000F0B40D4668
:100EB0000188090502D5214C7C4402E01F4C7C448A
:100EC0000E34002100F1240608E002F00F07120999
:100ED000E75D42EA03721B097754491C52EA030793
:100EE000F3D102780023120704D5702D06D009B182
:100EF000022311342246F0BC00F0CAB8012310349A
:100F0000F8E770B504460D4621461068FFF755FC1A
:100F1000024629462046BDE870400023C6E7D21DA0
:100F200022F00703D3E90023C0E70368126843F007
:100F3000200303600823C3610023B7E74053000088
:100F40000FB4002300B589B00CA900910B99CB60B8
:100F5000214B7B440693214B7B44079304236FF082
:100F60000042CDE901321E4A7A446B46089202469D
:100F7000002005F016F809B05DF814FB70B50646C0
:100F80004FF0FF3015460C46324686B00091CDE951
:100F9000010169460020049004A8FFF7D1FF024632
:100FA0000498211825B108B1084600E020462860C1
:100FB000049800280DD0002A02DD0098884208D04D
:100FC0003246081B69460094CDE9010404A8FFF7E6
:100FD000B7FF06B070BD000097050000AF05000028
:100FE0001301000000487047940200200048704739
:100FF000B402002030B5B0F10A024FEA900E71F150
:1010000000034EEA817EB0EB0E0061EB91014FEAE6
:10101000101E4EEA017E10EB0E0041EB11114FEA5B
:10102000102E4EEA016E10EB0E0041EB11214FEA3B
:10103000104E4EEA014E10EB0E0041EB11414018EC
:1010400041F100014FEAD00040EA41704FEAD1017E
:1010500010EB80054FEA810444EA907444EB0104EC
:101060006D1944EB0404521BA3414FF0000348BF29
:101070000A3200D530BD401C41F1000130BD10B531
:101080000446FFF753FB0068005D00F0010010BD4F
:101090002DE9F0470D4699469246044600F1240892
:1010A0000168880604D5E06921F01001216000E0A4
:1010B0000120A84201DD471B00E00027A1697A1941
:1010C00002EB0900081AA0612078C00602D420466D
:1010D000FFF743FB002608E0D4E901211AF80600D7
:1010E0009047206A401C761C20624E45F4DB207835
:1010F000C0060AD52046FFF730FB06E0D4E90121FF
:1011000030209047206A401C2062381EA7F101075A
:10111000F4DC07E0D4E9012118F805009047206AC3
:10112000401C2062281EA5F10105F3DC2046FFF7D4
:101130002AFB2078000602D50220BDE8F0870120B6
:10114000FBE700002DE9F04F04460D46D21D22F0CA
:10115000070089B0D0E900974846394603F079FB8B
:101160000246F80F01D02D2307E02068810701D542
:101170002B2302E0202101EAC0038DF820300BB1BF
:10118000012000E00020032A824601D0072A04DB68
:101190002946204600F054F93FE12078800601D42A
:1011A0000D2500E0E569C7F30A560D2D49DA002147
:1011B0004FEA175B08464FF00000002F00F4400094
:1011C00007DA00EB80004FF4400100EBD07001EA39
:1011D00060008115012901DD4FF0FF3100224FEA47
:1011E000850CBCF1180F06D31346ACF118004FF074
:1011F0008052C24003E04FF4801323FA0CF30CF149
:101200000C0CBCF1200F04D3ACF1200C09FA0CF04B
:1012100001E007FA0CF000294FF0004801DD18B991
:101220000FE00ED140450CD319EB02095F4121B903
:10123000404502D19F4329EA0209BBEB175F00D06A
:10124000761C2088000502D57B48784402E07A4865
:101250007844193808AA302302F80A30037C0AF1CE
:101260000101002E0AF1020A53546A4602DC4FF0D3
:10127000300101E04FF031014FF001088DF800100E
:1012800002D0A6F2FF3603E059EA470100D06B4EC8
:10129000002D02DC2178090704D54FF002082E2129
:1012A0008DF80110C44600210BE0C7F303433F0152
:1012B000C35C491C6D1E02F80830052908F10108BD
:1012C00001DA002DF1DC00210CE000EB1973491C60
:1012D0001B786D1E082902F808304FEA091908F139
:1012E000010801DA002DF0DC21688B0602D516E03A
:1012F000A8F10108E04505DD02EB080313F8013C05
:10130000302BF5D0B8F1000F09DD02EB080313F81C
:10131000013C2E2B03D1090701D4A8F10108002DAF
:1013200005DD3E2102F808106D1E08F10108407C21
:10133000002E02F8080008F1010804DA2D20764298
:1013400002F8080002E02B2002F808000A214FF4FE
:101350007A70864208F101080BDB96FBF0F330331C
:1013600002F8083096FBF0F308F1010800FB136661
:1013700001E0642E0CDB642096FBF0F3303302F8BE
:10138000083096FBF0F308F1010800FB136601E05A
:101390000A2E06DB96FBF1F0303002F8080008F167
:1013A000010896FBF1F001FB1060303002F80800F4
:1013B000A16908F1010808EB050202EB0A00081A0E
:1013C000A0612078C00602D42046FFF7C6F9216A42
:1013D00008AE01EB0A00206204E0D4E9012116F80E
:1013E000010B9047BAF1010AF7D22078C00602D566
:1013F0002046FFF7B2F96E4609E016F8010B3E28C9
:101400000FD0D4E901219047206A401C2062B8F136
:101410000108F2D22046FFF7B6F909B00320BDE873
:10142000F08F206A2844206203E0D4E901213020B3
:1014300090476D1EEBD3F8E7E94F000002FCFFFF79
:101440002DE9F0411F46044603260168072A01F4EE
:10145000006004DB08B116A505E016A503E008B19D
:1014600015A500E015A521F010002060A069C01EA0
:10147000A0610FB1401EA0612046FFF76EF94FB189
:10148000D4E9012138469047206A401C2062C01CE4
:10149000206206E0206AFAE7D4E9012115F8010B81
:1014A0009047761EF8D22046FFF76DF9BDE8F0812F
:1014B0004E414E006E616E00494E4600696E6600F8
:1014C00010B5436913B1AFF3008001E0FFF71AFCD8
:1014D000012010BD128800F1240182840022C28400
:1014E0000122EDE711684FF0FF32E9E7426842B1AF
:1014F000016811F8013B23B1521EC0E900121846E1
:1015000070470121C160881E704742685AB1C368A4
:10151000016843B983688B4205D0491E521CC0E95B
:101520000012002070474FF0FF3070472DE9F04760
:10153000814616468AB0354878440DC88DE80D00BE
:1015400032487844801C03AC0DC884E80D0041F695
:101550009B300844372190FBF1F290FBF1F5A5F1A7
:10156000800501FB12041B3C02D56442012000E00F
:101570000020DFF898A080460027FA44AAF1BE0AAE
:101580000EE0E0070AD03246684607EB4701012328
:101590000AEB810101F082F88DE8070064107F1CDE
:1015A000002CEED1194F7F44AE3F19E0E80715D06B
:1015B00007EB04100DF1180A90E80E008AE80E00FF
:1015C000C068F04201D1981908903246012306A95B
:1015D00003A801F063F803AB83E807006D10641CF7
:1015E000002DE3D14FF0010332466946B8F1000FF8
:1015F00003A802D001F028F801E001F04FF8C9E992
:101600000001C9F808200AB0BDE8F0878C4D000041
:1016100070B516460C460546FFF788F8036893F840
:101620000101012806D0FF2C0FD8185D68B10120F8
:101630002C7070BDD3F807013246214603F2071320
:1016400003442846BDE8704018474FF0FF3070BD96
:101650007546FFF7C7FCAE4605006946534620F0C5
:101660000700854618B020B5FEF742FEBDE82040D1
:101670004FF000064FF000074FF000084FF0000B4E
:1016800021F00701AC46ACE8C009ACE8C009ACE801
:10169000C009ACE8C0098D4670473A2800D23038FE
:1016A00020F02002412A01D3A2F13700884201D361
:1016B0004FF0FF30704700002DE9FF4F06468BB01A
:1016C0000878FF2806D0491C2D2805D000244FF0AB
:1016D000000908E000200CE00124F8E709EB890389
:1016E000491C00EB43090878FF28F7D114B1C9F170
:1016F00000008146107800252C46AA4629462D2850
:1017000001D02B2804D1521C2D2813D00020824652
:101710008B461078FF280FD04FF0000C0A21521C86
:10172000A5FB017804FB018105FB0C11C5194BEBEE
:101730000104EEE70120EAE7002108464FF000002F
:10174000BAF1000F02D000EB80004008C0F38157CF
:10175000012F01DD4FF0FF370E9955EA040009EB28
:1017600001080BD04FF0020918F5FA7F16DA4FEA9C
:10177000CA70002F706008DD012007E04FEACA70D0
:10178000C6E900B00FB0BDE8F08F00203060FEF772
:10179000D5FFC0F800901821084616E0B8F5FA7F8A
:1017A00018DD002F02DAF748784401E0F648784463
:1017B000D0E90010C6E9001040EACA707060FEF778
:1017C000BDFFC0F80090142108460FB0BDE8F04FEF
:1017D00004F080BB002108464FF00000B8F1000182
:1017E000099002DAC7F1000200E03A4601DAC8F1D6
:1017F000000106A8FFF79AFE06AB93E8070003ABCB
:1018000083E8070044F23E005BEA0401009058467A
:1018100004D144F21E012C465D460091210C0904BE
:10182000014306D10099240444EA15442D041039DB
:10183000009104F07F41014306D10099240244EA5B
:1018400015642D020839009104F07041014306D15E
:101850000099240144EA15742D01091F009104F038
:101860004041014306D10099A40044EA9574AD00BB
:10187000891E009104F00041084304D100986D19BD
:101880006441401E00904FF001033A466846B8F1AB
:10189000000FCDE9014503A902DD00F014FF01E0CE
:1018A00000F0E7FEBAF1000F04460D4601D084F0C7
:1018B0000044002108464FF00000099940F2FF77EC
:1018C000484010F00C0F07D124F00040284303D00B
:1018D000C4F30A50B84212D1FEF730FFC0F80090AE
:1018E000C4F30A50B8420AD1A8487844D0E900109D
:1018F000C6E9001004F000410843706042E7C6E901
:1019000000543FE72DE9FF4F1F464FF0000A4FF00C
:10191000FF38454691B0D7E90146CDF83CA0FFF726
:1019200065FBC0680168405C1090B96912986D1C35
:101930008847396A814688470028F6D1B9F1FF3FC8
:101940000AD0002E24F4D06411DDB9F12B0F08D099
:10195000B9F12D0F0BD102E0404615B013E744F466
:101960008064B96912986D1C8847761E81466005AF
:1019700004A901D52D2000E02B20002E01F1010B40
:101980000DF130088DF810003FDDB9F1690F08D076
:10199000B9F1490F05D0B9F16E0F02D0B9F14E0F70
:1019A0001CD13B4601A8009580E85002DDE91212E7
:1019B0006FF0020004F0F9FAC11CCED10EE0B96953
:1019C00012986D1C884781461398761E44F4007463
:1019D00005600F98401C002E0F9016DDB9F1300FF6
:1019E000EDD0B9F1780F02D0B9F1580F0DD10F98A1
:1019F00001280AD13B46CDE90054DDE91212001F4F
:101A0000029604F0D0FAC11CA7D1109989453ED1A5
:101A100044F0800406E01399681CAAF1010A44F41A
:101A200000740860B9696D1C1298761E88473028CA
:101A30008146F0D02BE01099894505D1200603D4CA
:101A4000761E44F0800418E0484603F080F908B39D
:101A5000761E0DF123018B4544F4007408D2A9F1E0
:101A600030000BF8010B200607D5AAF1010003E0B6
:101A7000200602D40AF101008246A00502D513997E
:101A8000681C0860B96912986D1C88478146002E51
:101A9000D1DC53E0002E51DDB9F1650F02D0B9F170
:101AA000450F4BD1A00549D5B9696D1C1298761E1A
:101AB00024F440748847002E81460CDD2B2804D086
:101AC000B9F12D0F07D144F48074B96912986D1CD7
:101AD0008847761E8146E00501D52D2100E02B21A7
:101AE00008F8011BCDF8008021E0761E0DF13901C8
:101AF000884544F400740CD2A9F1300010F0FF00C6
:101B000088F8000002D10099884509D908F1010838
:101B100006E0E00501D51E4801E042F20F70824662
:101B2000B96912986D1C8847814613980560002E8C
:101B300004DD484603F00BF90028D6D1F969129864
:101B40008847FF2053468BF8000088F800000020EB
:101B50000A900B9004AA0CA90AA8FFF7ADFDA005F6
:101B600002D46FF00100F8E614F0240F12D0E00761
:101B70001CD13868DDE90A12031D3B600068C0E92A
:101B8000001213E05C4B00004E4B0000124A0000B4
:101B9000F1D8FFFF0AA9684603F0C6F8E00705D1AF
:101BA0003868009A011D3960006802602846D4E652
:101BB00010B50446AFF300802046BDE81040FEF7A4
:101BC00082BB00004FF0013C50F8042B51F8043B5D
:101BD0009A4221D1A2EB0C03934313EACC1317D101
:101BE00050F8042B51F8043B9A4215D1A2EB0C0398
:101BF000934313EACC130BD150F8042B51F8043B58
:101C00009A4209D1A2EB0C03934313EACC13DBD025
:101C10004FF00000704700BFD01A01BAB1FA81F14D
:101C200001F0180122FA01F0CB40C1F12001DBB232
:101C3000C0B2C01A2CFA01F3D11A914311EAC311B0
:101C4000E6D1704701491820ABBEFEE7260002002E
:101C50002DE9FF4F1F464FF03C0987B04FF000427F
:101C6000DDE9141001F10108DDF858A002EA405046
:101C70000390002005908346054604460490B96908
:101C8000461E08988847AAF1010A0290BAF1000F8F
:101C90003BDD02982E2815D01021FFF7FEFC00280E
:101CA0002EDB4FF0010B0599014317D0B9F1000F5E
:101CB0000BDB4A46C11700F0F6F905430C43A9F1C6
:101CC000040905E0012004900BE008B145F001058E
:101CD00001200590049820B9361D02E0049800B157
:101CE000361FB969089808F101088847BBF1000F51
:101CF000AAF1010A0290C9D00999C1F80080C5E78C
:101D00000298702808D0502806D0F96908988847AA
:101D1000BBF1000F14D04FE0002002900120BBF176
:101D2000000F049009D0B969089808F101088847A4
:101D3000AAF10109B9F1000F07DCF9690898884791
:101D40006FF001000BB0BDE8F08F2B2804D02D28D8
:101D50000CD14FF0FF300490B969089808F10108E0
:101D60008847A9F10109B9F1000FE6DD411CE4D073
:101D70000A21FFF792FC0028DFDB029908F1010835
:101D800001EB810100EB41000290B9690898884796
:101D90000A21FFF782FC099AA9F10109B9F1000FA4
:101DA000C2F8008001DD0028E7DAF9690898884761
:101DB0000499029800FB016655EA040004D004F07F
:101DC0004041090002D006E0039898E0A40044EAEC
:101DD0009574AD00B61E04F00041080002D16D19E3
:101DE0006441761E159810F0240F03D04FF00B09B4
:101DF0005C4803E04FF028096FF07D0082465645AD
:101E000007DAAAEB06018944B9F1410F01DD4FF071
:101E1000410901200021A9F1010200F044F9024624
:101E200028400B462140084301D0012100E0002159
:101E3000501E029143F1FF3128402140084301D058
:101E4000012000E000200299834651EA0B014FD0A7
:101E5000002108464FF00000039900F4400039B11A
:101E600000EB80004FF4400100EBD07001EA60000D
:101E70008015012802DD4FF0FF3000E013D0401C38
:101E800036D0029860B3BBF1000F0CD14A46012056
:101E9000002100F008F928402140084301D001202A
:101EA00000E00020E0B101204A46002100F0FBF8EC
:101EB000034640190A4661412D1A8C4111D3B9F1EC
:101EC000400F09DD159810F0240F02D0AAF1340656
:101ED00003E0AAF1170600E0761C00254FF000444D
:101EE00006E05B1E42F1FF3220EA030521EA02040C
:101EF000CAF10100B04206DA1B4903980843019079
:101F0000002000900EE0039AC4F3D321E80A0A43AC
:101F1000164940EA44500A433146CDE9000268467A
:101F200002F00BFF159810F0240F0BD01598C00786
:101F300015D13868DDE90012031D3B600068C0E977
:101F400000120CE002A8694602F0EEFE1598C007E8
:101F500005D13868029A011D396000680260404668
:101F6000F0E6000002FCFFFF0000F07F0000F03F01
:101F70002DE9FF4F92461D4685B04FF00041DDE947
:101F8000124BDDE914727F1E01EA4B50414940F0CB
:101F9000FF4940EA0108002122F02000492804916D
:101FA00002D04E2828D04CE03BA0012607C88DE87F
:101FB0000700A9690698641C88477F1E014606D45D
:101FC0001DF8060018B121F0200181420BD0E9690B
:101FD00006988847032E34D0082E32D06FF00100C7
:101FE00009B0BDE8F08F761C032E01D0082EE0D199
:101FF000601CCAF80000DCE7A9690698641C8847E1
:102000007F1E2AD420F02000412826D1A9690698F5
:10201000641C88477F1E20D420F020004E281CD14D
:10202000A9690698641C88477F1E48F4002849F473
:102030008009CAF8004001D4282806D0E96906982A
:1020400088475FEACB7012D022E0A9690698641C29
:1020500088477F1E01D4002803DAE969069888477B
:10206000BCE72928F1D1641CCAF80040E9E71BF05D
:10207000240F07D028680499031D2B600068C0E96D
:10208000001805E02868021D2A600068C0F800906A
:102090002046A5E70000F07F494E46494E49545975
:1020A000000000007047B2F120030AD5C2F12003FE
:1020B00001FA02F120FA03F300FA02F041EA030107
:1020C000704700FA03F14FF0000070475FEA400CE0
:1020D00008BF91F0000F4FEA8C234FEAC12243EA78
:1020E00051514FEA1C5018BF00F5F0404FEA300044
:1020F00018BF41F000415FEA6C5C00F02980BCF140
:10210000FF3F08BF40F080407047130C06BF120429
:102110004FF0100C4FF0000C130E04BF12020CF124
:10212000080C130F04BF12010CF1040C930F04BF31
:1021300092000CF1020CD30F04BF52000CF1010C01
:1021400011464FF00002A0F11F00A0EB0C007047F9
:1021500011F0004F08BF704731F000413FF4D5AF98
:102160000B0C06BF09044FF0100C4FF0000C0B0EC7
:1021700004BF09020CF1080C0B0F04BF09010CF19C
:10218000040C8B0F04BF89000CF1020CCB0F04BFB1
:1021900049000CF1010CCCF12003A0EB0C0022FA59
:1021A00003F302FA0CF241EA030100F10100704767
:1021B00020F07F4C80EA030023F07F47ACEB07035D
:1021C00003F57C5300F0004003F1FF032DE9804943
:1021D0004FEA154B09B44FEA144325EA0B4E24EAA3
:1021E00003480FF2042606EB132749083E785FEAFE
:1021F000320203FB0667C7F5000707FB06F64FEA46
:1022000054374FEAD64606F1020607FB066CCCF1BE
:10221000005C4FEA1C472CEA074C07FB06F40CFB5A
:1022200006F504EB15464FEA961634BF00204FF032
:1022300000404FEAD13706FB07FC4FEA1C4C0CFB71
:102240000BF7D21B03FB0CF761EB07010CFB0EF73E
:10225000B0EB074072EB17420CFB08F734BFA2EB60
:102260000742B2EB074261EB17414FEA0C444FEAD9
:10227000910706FB07FC4FEA1C4C0CFB0BF7B0EB7D
:10228000C74072EB573203FB0CF734BFA2EBC742D7
:10229000B2EBC74261EB57310CFB0EF7B0EBC70056
:1022A00072EB57720CFB08F734BFA2EBC702B2EB1C
:1022B000C70261EB5771039F4FEA816141EA9211B6
:1022C00004EBCC044FEAD1374FEA826206FB07FCED
:1022D00042EA90124FEA80604FEA1C4C0CFB0BF76D
:1022E000D21B03FB0CF761EB07010CFB0EF7B0EB05
:1022F000074072EB17420CFB08F734BFA2EB074212
:10230000B2EB074261EB17414FEA8C554FEA910758
:1023100004EB9C2406FB07FC4FEA1C4C0CFB0BF760
:10232000B0EBC74072EB573203FB0CF734BFA2EBA4
:10233000C742B2EBC74261EB57310CFB0EF7B0EB73
:10234000C70072EB57720CFB08F734BFA2EBC70251
:10235000B2EBC70261EB577115EB4C254FEA816177
:1023600041EA92114FEA82624FEAD13742EA901273
:1023700006FB07FC44F100044FEA80604FEA1C4C66
:102380000CFB0BF7D21B03FB0CF761EB07010CFBFB
:102390000EF7B0EB074072EB17420CFB08F734BFA7
:1023A000A2EB0742B2EB074261EB174115EB1C159C
:1023B0004FEA813141EA92414FEA823242EA904249
:1023C0004FEA80304FEA0C7644F1000448EA0343B8
:1023D0004EEA0B484FF0000EB2EB080C71EB03070E
:1023E00024BF624639464EEB0E0E4FF0000B00182C
:1023F000524149414BEB0B0BB2EB080C71EB03075D
:102400007BF1000B24BF624639464EEB0E0E4FF0B7
:10241000000B0018524149414BEB0B0BB2EB080C7F
:1024200071EB03077BF1000B24BF624639464EEB8C
:102430000E0E51EA020718BF46F0010616EB0E76A3
:1024400055F1000254F1000103D5BDE88901BDE852
:102450000088BDE88901BDE80048B619524141EB4A
:102460000101A3F10103704780807F7E7D7C7B7A30
:102470007978777676757473727171706F6E6E6D30
:102480006C6C6B6A6A6968686766666564646363D6
:1024900062616160605F5F5E5E5D5D5C5C5B5B5A5C
:1024A0005A595958585757565655555554545353C9
:1024B00052525251515050504F4F4F4E4E4D4D4D24
:1024C0004C4C4C4B4B4B4A4A4A494949484848476F
:1024D00047474746464645454544444444434343AD
:1024E000434242424241414146EA0646A3F5705307
:1024F0004FEA164646EA42564FEAD22242EA415293
:1025000010B54FEAD121A3F1010300F02FF820F01C
:10251000004000F1020C00F0004701EB00501146B2
:10252000BCF5006F40EA070000D210BDBAF1000F01
:102530000AD01CB503B44FF004004FF004014FF073
:1025400000000FBCBDE810404FF00001BBF1010FCF
:10255000B9BF04484FF0FF310348002140EA0700AB
:1025600010BD00BFFFFFEF7F0000F07F002B9C46F7
:1025700030D477002BD01CB54FEA370703B44FF0A7
:1025800010004FF01001BAF1000F06D0BCF1000F9F
:10259000DCBF40F0080040F008014FF000000FBC25
:1025A000BDE810400BF1010BBBF1010F08BF5FEA62
:1025B000170722BF12F1010211F101014FF0004192
:1025C00043F1000300F0004043EA00007047F9D3F4
:1025D0005708D0E746EA064613F1400F4FEA164681
:1025E0001FDD13F1200FDFBF16430A460021203301
:1025F0005B42BED0C3F1200746EA064602FA07F75F
:102600004FEA164646EA0706C3F1200722FA03F20C
:1026100001FA07F721FA03F14FF0000342EA07023B
:10262000A7E746EA020646EA06464FEA164646EAA3
:102630000106BCBF46EA0646360C4FF000034FF0D9
:1026400000024FF0000194E72DE9804C9A46934632
:1026500070B491E8380007C831EA400C48BF34EA4A
:10266000430C03D5FFF7A4FDFFF780FFF0BCBDE8E6
:10267000008C2DE9804C9A46934670B491E838005E
:1026800007C831EA400C48BF34EA430C03D5FFF7D2
:102690008FFDFFF729FFF0BCBDE8008C2DE9804CD1
:1026A0009A46934670B491E8380007C810F0804FFE
:1026B00008BF13F0804F03D100F01AF8FFF756FF60
:1026C000F0BCBDE8008C2DE9804C9A46934670B46E
:1026D00091E8380007C810F0804F08BF13F0804F12
:1026E00003D100F005F8FFF7FFFEF0BCBDE8008C59
:1026F00020F07F4780EA030023F07F4C07EB0C03B8
:10270000A3F57C5300F00040A3F1FE0392F0000F0C
:1027100000F0B38095F0000F00F077802DE90149BB
:102720004FEA11404FEA144621EA004800FB06FC3C
:1027300024EA064708FB06F607FB08F800FB07F744
:1027400018EB06484CEB164C4FEA124B18EB0748B7
:102750004FEA15464CEB174022EA0B4E0BFB06FCEA
:1027600025EA06470EFB06F607FB0EFE0BFB07F7F6
:102770001EEB064E4CEB164C4FF000061EEB074EC0
:102780004CEB174B18EB0B0840F1000018EB0E0B4D
:1027900058EB000840F100008F1A4FF000013CBFD9
:1027A000C943661B14BFB5EB040C00213CBFC943F1
:1027B000F61B4FEA17444EEA8E0E27EA04454FEA0D
:1027C0001C4704FB07622CEA074C05FB07F70CFBD0
:1027D00005F604FB0CFC16EB074642EB174216EB22
:1027E0000C4642EB1C421BEB060658EB0202414131
:1027F00046EA9E0601D5BDE80189B619524141EB72
:102800000101A3F10103BDE801894FEA14454FEA34
:10281000114724EA054621EA074C05FB07F406FBAD
:1028200007F70CFB06F105FB0CFC11EB074144EB31
:1028300017444FEA124711EB0C4144EB1C4422EAC7
:10284000074C05FB07F206FB07F70CFB06F605FB3A
:102850000CFC16EB074642EB174216EB0C4642EB1C
:102860001C456A1854F1000148BF7047B61952411F
:1028700041EB0101A3F10103704795F0000F37D040
:102880004FEA11424FEA144721EA024624EA074C74
:1028900002FB07F106FB07F70CFB06F402FB0CFC3E
:1028A00014EB074441EB17414FEA154714EB0C4476
:1028B00041EB1C4125EA074C02FB07F506FB07F735
:1028C0000CFB06F602FB0CFC16EB074645EB174526
:1028D00016EB0C4645EB1C42121951F1000148BFA2
:1028E0007047B619524141EB0101A3F10103704752
:1028F0004FEA14454FEA114724EA054621EA074CFE
:1029000005FB07F106FB07F70CFB06F24FF000068C
:1029100005FB0CFC12EB074241EB174112EB0C429A
:1029200051EB1C4148BF7047921841EB0101A3F1E4
:102930000103704700B5002291B0C91E08E0835C16
:10294000B52B03D183189B785B2B05D0521C92B218
:102950008A42F4DD11B000BD10444078012811D046
:10296000022811D0032811D0042811D009A20BA1EC
:102970006846FDF761FD684601F0ACFB0AA001F076
:10298000A9FBE7E70BA2F2E70BA2F0E70BA2EEE749
:102990000BA2ECE74661696C6564000074312E742B
:1029A00078743D22257322007669732074322C30AE
:1029B000000000004C50460048504600425046007F
:1029C000425246001CB50A460146684601F058FAD4
:1029D000DDE9000102F036FA1CBD000010B500F080
:1029E00076F801F04BFA05490020087000F070F805
:1029F000BDE8104002A001F06DBB000014000020F3
:102A000070616765203000007047FEE7014800F004
:102A10007FB900009C010020014800F079B9000056
:102A20003C01002001681823CAB2103AB2FBF3F24D
:102A3000054B6FF30901032A9B5CC36500D9091D8F
:102A40008165084670470000DE5F000810B501464A
:102A500000208B698A6A4FF0C07453B1B3F5005FF0
:102A600015D072B1012A0CD0022A0AD0032A09D14A
:102A700004E01AB1012A06D0022A03D1C96AC901A9
:102A800000D5012010BDC96AA142FAD010BD002AAC
:102A9000F7D0012AF2D0022AF3D0032AF3D010BDD6
:102AA00030B50468256825F48025256004686360D6
:102AB0008368402B036803D099600068C26030BD12
:102AC0009A600068C16030BD704772B6FEE770471B
:102AD000032002F09FBB000030B530212DED048BA8
:102AE0008DB0F0EE418AB0EE609AB0EE408A684652
:102AF000FDF7F1FD18EE100A03F0C6F89FED2B1B51
:102B000053EC112B02F048FE41EC100B02F024F8BC
:102B100051EC100B02F0D6FD0446B0EE490A02F06B
:102B20001DF99FED248A0546B0EE680AF0EE480ACA
:102B300001F052FFB5EEC00AF1EE10FA01D230EE0C
:102B4000080AC0EE080A9FED1C0A20EE800A02F077
:102B500073F8A5218DF8001002218DF801108DF871
:102B60000240210ABCEEC00A8DF80310210C8DF83A
:102B7000041010EE100A210E8DF805108DF80800D3
:102B80008DF80650290A000A8DF807108DF8090003
:102B90005A208DF82E00C8232F226946074801F0DD
:102BA0001CF90DB0BDEC048B30BD00003A8C30E256
:102BB0008E7955400000B44300008047AC000020EF
:102BC00000B58DB030216846FDF785FDB7EE000AEF
:102BD00002F0C4F8A5218DF8001006218DF801102F
:102BE0008DF80200000A8DF803005A208DF82E009F
:102BF000C8232F226946024801F0EFF80DB000BD4E
:102C0000AC00002000B530212DED028B8DB0B0EE70
:102C1000408A6846FDF75FFDB0EE480A02F09EF874
:102C2000A5218DF8001005218DF801108DF8020006
:102C3000000A8DF803005A208DF82E00C8232F2299
:102C40006946034801F0C9F80DB0BDEC028B00BD28
:102C5000AC000020042002F0DDBA2DE9F04104466A
:102C6000876D00F0C5FA064694F835000025022865
:102C700006D08020606584F834500120BDE8F081E2
:102C80002068016821F0160101602068416921F087
:102C900080014161206C08B9A06C20B120680168F6
:102CA00021F0080101602068016821F00101016044
:102CB0000CE000F09DFA801B052807D920206065F4
:102CC000032084F8350084F83450D7E72068006882
:102CD000C007EED194F85C103F208840B860012016
:102CE00084F8350084F834500020C7E790F8351098
:102CF000022903D08021416501207047052180F819
:102D000035100068016821F0010101600020704762
:102D10002DE9F84304464FF00009CDF800906348D0
:102D20004FF41651A56D0068B0FBF1F72E6894F8CA
:102D30005C10082000FA01F131420FD021680A68C6
:102D400052070BD50A6822F004020A6094F85C105E
:102D50008840A860606D40F00100606594F85C10E8
:102D60004FF0010808FA01F0304208D021684969A3
:102D7000090604D5A860606D40F00200606594F813
:102D80005C1004208840304208D021680968890717
:102D900004D5A860606D40F00400606594F85C1094
:102DA00010208840304218D021680968090714D5DE
:102DB000A86020680168490304D50068000308D5AD
:102DC000A16C07E00168C90503D4016821F008017E
:102DD0000160216C09B12046884794F85C102020DE
:102DE0008840304231D021680968C9062DD5A860D5
:102DF00094F8350005282068016806D0490347D5B6
:102E0000006800031DD4616C1CE021F01601016014
:102E10002068416921F080014161206C08B9A06CF3
:102E200020B12068016821F00801016094F85C106D
:102E30003F208840A86084F8358084F83490216D64
:102E40001FE0E16B09B120468847606D00282BD058
:102E5000606DC00714D0052084F835002068016833
:102E600021F0010101600098401C0090B84203D895
:102E700020680068C007F6D184F8358084F8349063
:102E8000E16C002910D001B02046BDE8F0430847AE
:102E90000168C905D5D4016821F01001016084F8EA
:102EA000358084F83490CCE7BDE8F8830C0000202E
:102EB0002DE9F041044600F09BF906465CB1022082
:102EC00084F83500002584F834502068016821F02A
:102ED000010101600DE00120BDE8F08100F088F9FA
:102EE000801B052805D920206065032084F8350063
:102EF000F2E720680068C007F0D122681168204816
:102F00000140D4E901031843D4E90336334318439D
:102F100063691843A3691843E3691843236A184394
:102F20000843616A042903D1D4E90B131943084308
:102F3000106020684069666A20F0070130460E4341
:102F4000012704280CD1A06A0643E06A40B120465C
:102F5000FFF77CFD20B14020606584F83570BAE74A
:102F6000206846612046FFF75DFD94F85C203F2114
:102F700091408160656584F835700020ACE7000001
:102F80003F8010F02DE9F0410446866D90F8340042
:102F9000002501280DD0012084F8340094F8357004
:102FA0000020012F07D084F8340002252846BDE810
:102FB000F0810220FBE7022784F835706065204627
:102FC000FFF76EFD94F85C103F208840B0602068E9
:102FD000016841F016010160206C20B12068016891
:102FE00041F0080101602068016841F001010160C1
:102FF000DCE700002DE9F84FDFF8BCA10022012535
:1030000003264FF00F090AF1040BAAF1040E00BFCA
:103010000B6805FA02F42340A34270D10F7907F040
:103020000307012F01D0022F16D187684FEA42080B
:1030300006FA08FC27EA0C07D1F80CC00CFA08FCC9
:103040004CEA070CC0F808C04768A7430C79C4F3E2
:10305000001494403C4344600C79E443A4070AD034
:10306000C4684FEA420C06FA0CF7BC438F6807FAB3
:103070000CF72743C7600C7904F00304022C12D12B
:10308000D40800EB840CDCF820405707FF0E09FA47
:1030900007F824EA0804D1F8108008FA07F848EA8B
:1030A0000408CCF8208004684FEA420C06FA0CF7BA
:1030B000BC430F7907F0030707FA0CF727430760B3
:1030C0004C6814F4403F70D03C4C276847F480476C
:1030D0002760246822F0030704F480440094384CED
:1030E00007EB040CDCF8084897074FEA177809FA51
:1030F00008F7BC43334FB84202D1002724E054E024
:10310000314FB84201D101271EE0304FB84201D102
:10311000022719E02E4FB84201D1032714E02D4FAA
:10312000B84201D104270FE02B4FB84201D1052747
:103130000AE02A4FB84201D1062705E0284FB842DD
:1031400001D1072700E0082707FA08F72743CCF842
:103150000878DAF800405746D1F804C09C435FEA8B
:10316000CC2C00D51C433C60DBF800405F46D1F816
:1031700004C09C435FEA8C2C00D51C433C60DEF805
:1031800000407746D1F804C09C435FEA8C3C00D5F0
:103190001C433C60084F083F3C68D1F804C09C4386
:1031A0005FEACC3C00D51C433C60521C102AFFF463
:1031B0002FAFBDE8F88F0000083C014044380240C2
:1031C00000300140000002400004024000080240BC
:1031D000000C02400010024000140240001802409F
:1031E000001C02400AB1816170470904FBE700003E
:1031F0000148806870470000000000200248816894
:103200000278114481607047000000200B4810B51F
:10321000016841F400710160016841F4806101605E
:10322000016841F480710160032000F06FF80F2005
:1032300000F006F800F024F8002010BD003C024029
:1032400070B50D4D04464FF47A712878B1FBF0F05B
:103250000A490968B1FBF0F000F00AFB48B9102CEC
:1032600007D200222146501E00F030F800206C608A
:1032700070BD012070BD0000000000200C00002087
:103280000A4808B5016841F480410160006800F413
:10329000804000900548001F016841F080510160A6
:1032A000006800F08050009008BD000044380240E3
:1032B000002809DB00F01F02012191404009800035
:1032C00000F1E020C0F8001170470000F0B40E4B90
:1032D0001B680C46C3F30223C3F10705042D00D974
:1032E0000425191D072901D2002300E0DB1E012659
:1032F00006FA05F1491E214099409E40761E16406F
:103300003143F0BC01F0BDBA0CED00E0064900F01D
:10331000070208684FF6FF03184040EA0220034AFC
:1033200010430860704700000CED00E00000FA0553
:103330002DE9F0470E46050065D0DFF81481D8F876
:103340000000F7B200F00700B04207D288F8007022
:10335000D8F8000000F00700B04254D128683D4C76
:10336000810712D5400703D5206840F4E050206063
:103370002878000703D5206840F46040206020686A
:10338000A96820F0F000084320602878C0072DD0FD
:10339000304968680839012812D0022813D0032860
:1033A00011D00968890700292DDA216821F003016D
:1033B00001432160FFF71CFF814641F2883A0EE08D
:1033C00009688903EFE709688901ECE7FFF710FF57
:1033D000A0EB0901514502D90320BDE8F087206820
:1033E000696800F00C00B0EB810FEFD1D8F8001045
:1033F000404601F00701B14207D90770006800F0AC
:103400000700B04201D00120E7E72878400705D542
:103410002068E96820F4E05008432060287800071D
:1034200006D52068296920F4604040EAC100206088
:1034300000F038F82168084AC1F30311515CC84014
:103440000649086006480068FFF7FAFE0020C4E756
:10345000003C024008380240E65F00080C000020F3
:10346000040000200448054900680968044AC1F3C3
:103470008221515CC84070470C000020083802408F
:10348000F65F00080448054900680968044AC1F36A
:103490004231515CC84070470C000020083802409F
:1034A000F65F0008154810B5006810F00C021448CB
:1034B00013D04110042A0FD0082A0ED10F4C241F1C
:1034C0002268236802F03F025B0207D52068C0F340
:1034D0008810A0FB010106E0084610BD2168C1F379
:1034E0008811A1FB00010023FCF714FF2168C1F340
:1034F0000141491C4900B0FBF1F010BD0838024001
:103500000024F4002DE9F84F04006ED02078DFF895
:103510004C93C007A9F104054AD009F104000168E1
:10352000C1F38101012908D00068C0F3810002289D
:103530000AD1D9F80000400206D52868800337D5A3
:1035400060680028E1D033E06068B0F5803F10D0BB
:10355000B0F5A02F286810D020F4803028602868AB
:1035600020F4802028606068A8B1FFF741FE06467D
:103570000DE0286840F48030F4E740F480202860B3
:10358000F7E700BFFFF734FE801B642873D8286874
:103590008003F7D50CE0FFF72BFE064605E000BFE1
:1035A000FFF726FE801B6428F0D828688003F7D434
:1035B0002078DFF8AC8280074FF0000A3ED5A7489C
:1035C000001D016811F00C0F08D00068C0F38100E5
:1035D00002280BD1D9F80000400207D428688007E0
:1035E00016D5E068012800D112E033E1E068B8B1F7
:1035F0000120C8F80000FFF7FBFD064605E000BF0C
:10360000FFF7F6FD801B0228C0D828688007F7D591
:103610002868216920F0F80040EAC10028600DE028
:10362000C8F800A0FFF7E4FD064604E0FFF7E0FD60
:10363000801B02281FD828688007F7D4207800074D
:1036400022D5864F87486169703771B101210160C9
:10365000FFF7CEFD064604E0FFF7CAFD801B0228F7
:1036600009D838688007F7D50EE0C0F800A0FFF74A
:10367000BFFD064605E082E0FFF7BAFD801B022889
:103680007DD838688007F7D42078400768D5DFF800
:10369000CCB100270BF13C0BDBF80000C0000BD4D1
:1036A000DBF8001041F08051CBF80010DBF800008F
:1036B000012700F0805000906B4E3068C00510D498
:1036C000306840F480703060FFF792FD009005E0B4
:1036D000FFF78EFD0099401A022850D83068C005C7
:1036E000F6D55E4EA0686C3601280FD005283068EC
:1036F00010D020F001003060306820F0040030600D
:10370000A068B8B1FFF774FD00900FE0306840F09A
:103710000100F4E740F004003060F7E7FFF768FDD0
:103720000099411A41F28830814266D8306880079A
:10373000F4D50EE0FFF75CFD009007E0FFF758FDC1
:103740000099411A41F28830814256D8306880078A
:10375000F4D42FB1DBF8001021F08051CBF8001029
:10376000A069C8B33D49091D0968C1F38101022957
:103770004AD00228504607D0C8F8600000E03CE07C
:10378000FFF736FD04463BE04746C8F86000FFF708
:103790002FFD064605E000BFFFF72AFD801B02282B
:1037A0002BD828688001F7D4D4E907010843A16A1F
:1037B0002E4A490802EB0141626A41EA821108433C
:1037C00094F82C1040EA0161C9F800100120386615
:1037D000FFF70EFD044606E03EE000BFFFF708FDE0
:1037E000001B022809D828688001F7D534E000BF03
:1037F000FFF7FEFC001B022802D90320BDE8F88F6A
:1038000028688001F4D427E00128F7D0D9F8000017
:10381000E26900F4800191421CD1226A00F03F016C
:10382000914217D147F6C071626A0140B1EB821F25
:1038300010D1A26A4FF0FF3300F4403103EB520283
:10384000B1EB024F06D194F82C1000F07060B0EB91
:10385000016F01D00120D1E70020CFE704380240FA
:1038600000004742800E4742007000400000FFFF0A
:1038700010B5401EB0F1807F01D3012010BD4FF084
:10388000E02460610F21601700F0FBFF0020A061C1
:1038900007202061002010BD38B5044690F8420092
:1038A000202801D0022038BD51B14AB10120206347
:1038B00000206063204600F01BFF216B012901D02E
:1038C000012038BD21680A684968009121680C31DF
:1038D00051E8002F42F0100241E80023002BF5D1FF
:1038E00038BD000010B500680F4A904209D10F485A
:1038F000FFF720F840220D490D48FFF7CDFF0C4897
:103900000BE00C4A90420ED10B48FFF75BF84022C7
:1039100009490A48FFF7C0FF0848C06B0068016802
:1039200021F00801016010BD001001402C000020B2
:10393000AC000020004400406C000020F400002097
:1039400070470000F8B5016804460868CA684B690A
:1039500010F00F0F4FF0000559D003F0010602F4EC
:103960009077374365D0C10705D0D10503D5616C89
:1039700041F001016164410705D5D90703D0616CAD
:1039800041F002016164810705D5D90703D0616C5C
:1039900041F004016164010707D502F020013143C1
:1039A00003D0616C41F008016164616C00293AD078
:1039B000800604D5900602D5204600F0B2FD2068AE
:1039C0004069616CC0F38010090700D460B32046E1
:1039D00000F072FD20684069400621D5206814304F
:1039E00050E8001F21F0400140E80012002AF5D104
:1039F000E06BA8B172490165E06BFFF777F9002829
:103A000011D0E06B016D01B0BDE8F04008478306BE
:103A10000FD593060DD52046BDE8F84000F081BDD6
:103A20002046FFF78DFFF8BD2046FFF789FF65644C
:103A3000F8BD266B2023012E7ED1C6067CD5D60686
:103A40007AD508684868009048694FF00206400639
:103A50004DD5E26B106840684FF480770004000C8D
:103A60003AD0A18D814237D9E085D069B8422DD0B6
:103A700020680C3050E8001F21F4807140E80012EB
:103A8000002AF5D12068143050E8001F21F0010110
:103A900040E80012002AF5D12068143050E8001FD9
:103AA00021F0400140E80012002AF5D184F84230AC
:103AB000256320680C3050E8001F21F0100140E819
:103AC0000012002AF5D1E06BFFF7C7F86663A08DFE
:103AD000E18D401A81B206E0A18D8142A8D1D06962
:103AE000B842A5D166632046FFF7FCFEF8BDA08D65
:103AF000E18D401A81B2E08D0028F7D00029F5D081
:103B000020680C3050E8002F22F4907240E8002723
:103B1000002FF5D12068143050E8002F22F0010268
:103B200040E80027002FF5D184F842302563206853
:103B30000C3050E8002F00E006E022F0100240E8D0
:103B40000023002BF3D1CDE705062BD5150629D58B
:103B500094F841002128C9D1A068B0F5805F01D157
:103B60002069B0B1206A411C216221680078486058
:103B7000E08C401E0004000CE084B7D12068C168CE
:103B800021F08001C1602068C16841F04001C1603E
:103B9000F8BD206A0088C0F308004860206A801CD5
:103BA0002062E5E74006F3D55006F1D5CA68204605
:103BB00022F04002CA6084F8413000F05EF9F8BD9E
:103BC000BD43000870B5040004D094F841000025FE
:103BD00010B106E0012070BD84F84050204600F08E
:103BE00023F8242084F841002068C16821F40051A2
:103BF000C160204600F0F6FC2068016921F4904184
:103C000001612068416921F02A0141612068C16891
:103C100041F40051C1606564202084F8410084F8BB
:103C200042006563002070BD2DE9F04387B0064671
:103C300014216846FCF74FFDDFF80C810222316841
:103C4000002442480323424D97064FF0070C4FF4DF
:103C50008069414537D13D491431D1F8008048F0A1
:103C60001008C1F80080096801F010010591016891
:103C700041F0010101600068694600F00100059013
:103C800058028DE81500CDE9033C2846FFF7B2F94C
:103C9000314D30482860C5E90174C5E903496C61BC
:103CA000AC61EC612C6228466C62FFF701F908B147
:103CB000FEF70BFFF563002211462520AE63FFF7E8
:103CC00005FB25203BE0DFF89480414539D11F49B1
:103CD0001031D1F8008048F40038C1F8008009683C
:103CE00001F400310591016841F0010101600068B3
:103CF000694600F0010005900C208DE81500CDE923
:103D0000033C2846FFF776F9134D154860352860C7
:103D1000C5E90174C5E903496C61AC61EC612C62D1
:103D200028466C62FFF7C4F808B1FEF7CEFEF563D3
:103D3000002211462620AE63FFF7C8FA2620FFF7BF
:103D4000B7FA07B0BDE8F0830010014030380240F8
:103D500000000240406402403C010020004400405A
:103D60008860024090F84230202B01D0022070473A
:103D700021B11AB10023036300F00ABD012070478E
:103D80000068114988421ED11048114B0278401E2C
:103D90000A2A0ED00D2A0CD04188952904D24188D8
:103DA0000B44491C41801A70012208490948FFF759
:103DB000D9BF41880029F7D04288002199540122B7
:103DC00002704180F0E7704700440040110000207D
:103DD000FC010020F400002070472DE9F843044660
:103DE00090F84100984616460D46202802D0022041
:103DF000BDE8F88385B17EB100206064212084F89D
:103E00004100FFF7F5F9A6848146E684A0682027E3
:103E1000B0F5805F02D003E00120E9E7206910B12E
:103E20002E4600250EE000260CE08021204600F002
:103E3000CAFCA8B9C6B116F8010B21684860E08C2D
:103E4000401EE084E08C4B464FF00002CDF800802D
:103E50000028EAD14FF04001204600F0B4FC40B108
:103E600084F841700320C3E735F8020BC0F3080063
:103E7000E3E784F841700020BAE77047704700001C
:103E80002DE9F0410024074625460E46802A01D23E
:103E9000B45401E086F87F4006225EA13046FCF76C
:103EA000CFFB002874D006225CA13046FCF7C8FB8B
:103EB00000286FD006225BA13046FCF7C1FB00282A
:103EC0006AD0062259A13046FCF7BAFB002865D01B
:103ED000062258A13046FCF7B3FB002860D00B2225
:103EE00056A13046FCF7ACFB00285BD0082256A157
:103EF0003046FCF7A5FB002856D0082255A13046D5
:103F0000FCF79EFB002851D0082255A13046FCF753
:103F100097FB00284CD0072254A13046FCF790FBB9
:103F2000002847D0072253A13046FCF789FB002820
:103F300042D0082251A13046FCF782FB00283FD036
:103F4000092251A13046FCF77BFB00283ED00C2211
:103F500050A13046FCF774FB80B30B2251A13046D0
:103F6000FCF76EFB58B30B2251A13046FCF768FBFF
:103F700090B30B2251A13046FCF762FB68B30B22D1
:103F800051A13046FCF75CFB40B33EE000E001E0AD
:103F9000012038E0022036E0032034E0042032E043
:103FA000052030E00E202EE006202CE007202AE03D
:103FB000082028E0092026E00A2024E00FE01BE08A
:103FC0000B2060F3070406F108000DE00C2060F3FD
:103FD000070406F1090007E010E011E012E00D20EF
:103FE00060F3070406F10C0000F0DAFC51EC100B52
:103FF00001F03EFA054608E00F2004E0102002E040
:10400000112000E0122060F30704C7E90045BDE875
:10401000F08100006D6F6465203100006D6F646594
:10402000203200006D6F6465203300006D6F6465A1
:10403000203400006D6F6465203500006C6561728E
:104040006E5F737461727400667265715F696E632E
:1040500000000000667265715F6465630000000027
:10406000667265715F6D617800000000616D705F60
:10407000696E6300616D705F646563007365745F92
:10408000616D7020000000007365745F766F757459
:10409000200000007365745F766E615F616D702053
:1040A000000000006D335F766F75745F696E6300AA
:1040B0006D335F766F75745F646563006D335F6643
:1040C0007265715F696E63006D335F667265715F03
:1040D000646563000FB4802100B5A1B023AB6846CE
:1040E000229AFCF78FF9002810DD80280ED282B2C8
:1040F000642369460748FFF770FE07A06423006841
:104100002090032220A90348FFF767FE21B05DF845
:1041100014FB0000F4000020FFFFFF00FEE700009A
:1041200010EE100A284908442849884245D22849F7
:10413000002000BF01EBC00292ED001AB4EEC01ADD
:10414000F1EE10FA0CD892ED021AB4EEC01AF1EEAC
:1041500010FA05DB11EBC00102F1080003D009E001
:10416000401C3B28E6DB10EE100A1A49884224D195
:1041700019480146814208D091ED001AD0ED001A8D
:10418000B4EE611AF1EE10FA02D191ED011A0FE0CE
:10419000D0ED012A91ED012A30EE410A71EEC11AEB
:1041A00072EEC22A22EE800A80EE211A31EE021A45
:1041B0000A4911EE100A884202DCBFEE000A70477D
:1041C00080EE810A70470000000038BD0180F302D4
:1041D000006000080080BB45D86100086F12833A78
:1041E000114808B5016841F400110160016801F44B
:1041F00000110091016841F4800101600068002213
:1042000000F48000009011461020FFF75FF81020A6
:10421000FFF74EF8002211463A20FFF757F8BDE8A5
:1042200008403A20FFF744B83038024070B586B0F5
:1042300014216846FCF74FFA16480024016841F043
:1042400020010160016801F020010591016841F041
:1042500080010160016801F080010591016841F071
:104260000101016000680C4E00F001004FF4C065D0
:104270000590002229463046FEF7B4FF0120009544
:10428000CDE90104694630460394FEF7B3FE06B05B
:1042900070BD000030380240001402400C4810B5D8
:1042A0000A4901604FF4E1314160002181600C2234
:1042B000C160C0E904128161C161FFF783FC00287D
:1042C00003D0BDE81040FEF700BC10BD0010014057
:1042D000AC0000200C4810B50A4901604FF4E131F0
:1042E0004160002181600C22C160C0E9041281613B
:1042F000C161FFF767FC002803D0BDE81040FEF75E
:10430000E4BB10BD00440040F4000020FEE7FEE7DF
:1043100070477047FEF772BF30B593B030216846E2
:10432000FCF7D9F914210CA8FCF7D5F91D48002594
:10433000016841F080510160006800F080501190E8
:104340001948016841F4804101600068022400F4CA
:104350008040119001200090000401908001CDE97F
:10436000064008AA0420A82182E813000B906846A2
:10437000FFF7C8F808B172B6FEE70CA90F2081E874
:1043800031004FF4A0500F904FF480501090052151
:104390000CA8FEF7CDFF002801D072B6FEE713B0DF
:1043A00030BD000040380240007000400248016803
:1043B00041F470010160704788ED00E010B5806B3A
:1043C0000021C185FFF7BCFA10BD70B5846B206871
:1043D000406994F84110C0F3C0100025212904D190
:1043E00018B1E584204600F08EF82068406994F802
:1043F0004210C0F38010222904D118B1E58520466F
:1044000000F05AF8606C40F0100060642046FFF73E
:1044100097FA70BD10B50146806B096809684FF0C6
:104420000002C9052ED4C28501680C3151E8003F55
:1044300023F4807341E80034002CF5D10168143175
:1044400051E8003F23F0010341E80034002CF5D18E
:104450000168143151E8003F23F0400341E8003483
:10446000002CF5D1202180F84210016B012909D1DF
:1044700001680C3151E8003F23F0100341E800349B
:10448000002CF5D14263016B012902D0FFF778FCC3
:1044900010BD818DFFF726FA10BD10B5806B01218C
:1044A0004163016B012902D0FFF796FC10BD818D9D
:1044B0004908FFF717FA10BD01680C3151E8002FC9
:1044C00022F4907241E80023002BF5D101681431E9
:1044D00051E8002F22F0010241E80023002BF5D122
:1044E000016B012909D101680C3151E8002F22F03C
:1044F000100241E80023002BF5D1202180F8421062
:1045000000210163704701680C3151E8002F22F04F
:10451000C00241E80023002BF5D1202180F8411092
:10452000704708B590F84210222901D0022008BD3A
:1045300082684FF480539A4201D1016921B1816AA6
:104540009A421BD04AB10AE00268816A5268C2F3FB
:1045500008020A80816A891C08E0026972B1026857
:10456000526802F07F020A70816A491C8162C18D23
:10457000491E0904090CC18503D01BE0026852687A
:10458000F1E70168CA6822F02002CA600168CA68BF
:1045900022F48072CA6001684A6922F001024A610D
:1045A000202180F8421000214163026B012A03D0D0
:1045B000FFF7E6FB002008BD016301680C3151E8FC
:1045C000002F22F0100241E80023002BF5D10168F2
:1045D0000A68D20602D50A6849680091818DFFF702
:1045E00081F9E7E770B5044600680169E26821F4E3
:1045F0004051114301612169A068E2690843616982
:10460000114308432168CA6849F20C639A43024384
:10461000CA6020684169A26921F440711143416177
:1046200031492068884202D03049884202D1FEF7E1
:1046300029FF01E0FEF716FFE26900231921642536
:104640003226B2F5004F626828D0A0FB0101930F1B
:104650009200FBF75FFE0146B0FBF5F06FF0180229
:10466000504301EB800006EB0010B0FBF5F000F0CA
:10467000F002B1FBF5F002EB0012B1FBF5F06FF0C8
:104680001803584301EB800006EB0010B0FBF5F077
:1046900000F00F0021681044886070BDA0FB01018C
:1046A00092185B41FBF736FE0146B0FBF5F00201C4
:1046B000B1FBF5F06FF01803584301EB800006EBF7
:1046C000C000B0FBF5F000F0F80002EB4002B1FBD7
:1046D000F5F0584301EB800006EBC000B0FBF5F0AD
:1046E00000F00700D6E70000001001400014014070
:1046F00038B5816204468285002013466064222218
:1047000084F84220E56B1F4AEA63E56B1E4A2A647F
:10471000E56B1E4AEA64E26B10650A462168E06BAD
:10472000091DFEF72FFC30B110206064202084F8B2
:104730004200012038BD206801684068009020696F
:1047400048B120680C3050E8001F41F4807140E807
:104750000012002AF5D12068143050E8001F41F003
:10476000010140E80012002AF5D12068143050E819
:10477000001F41F0400140E80012002AF5D100205E
:1047800038BD0000154400089B440008CB430008D6
:1047900081628285C28500214164222180F8421015
:1047A000016921B10168CA6842F48072CA60016877
:1047B0004A6942F001024A610068C16841F0200183
:1047C000C160002070472DE9F843984617460D4612
:1047D0000446089E24E0701C22D0FEF709FDA0EBE1
:1047E0000800B0421AD8CEB12068C168490717D571
:1047F000802D15D0402D13D00168C94309070FD46F
:1048000001680025406800902046FFF755FE08200B
:10481000606484F840500120BDE8F8830320FBE782
:104820002068006835EA000004D00020B842D2D0E9
:104830000020F1E70120F9E70148FFF783B8000005
:10484000AC0000200148FFF77DB80000F400002014
:10485000FEE703B401984100009850EAC12018BF58
:1048600004204A0D18BF40F0010040F2FF72B2EB85
:10487000515F08BF40F00200012808BF052002B0C8
:1048800070470907090E002804DB00F1E02080F8DA
:104890000014704700F00F0000F1E02080F8141DB4
:1048A000704700000000000030B52DED048B81B092
:1048B000B0EE408AF0EE608A6A4651EC180B00F0C8
:1048C0007BFA00989FED329B7E300090002821DC1F
:1048D00053EC192B51EC180B00F0B8FE1AD0002144
:1048E00040F608004FF00000044651EC180B00F0B1
:1048F000BFFD08EE100A40F6080004EA00014FF080
:104900000000B5EEC08AF1EE10FA04BF0220FBF7FA
:104910001EFF2DE00098FF2830DB002108464FF0F5
:10492000000000F4400553EC192B51EC180B01F07A
:1049300031F88CBF002401240220FBF708FF9FED13
:10494000168A4DB1002C0CBF4FF400004FF48000CC
:10495000A84218BF9FED118A042108464FF00000BD
:10496000002C01BFB1EE480A01B0BDEC048B30BD94
:10497000B0EE480A01B0BDEC048B30BD51EC180B11
:1049800000F076FD01B000EE100ABDEC048B30BDE6
:1049900000000000000000000000807FFFFF7F7F1C
:1049A00030B583B00446FBF7CDFE9FED090B0546FD
:1049B0008DED000B002221466846FCF7DFFA284601
:1049C000FBF7C5FE9DED000B03B030BD00000000FD
:1049D000000000000000000010B52DED028BF0EE8D
:1049E000408A18EE900AB0EE608A20F00040C0F1D4
:1049F000FF40C00F07D118EE100A20F00040C0F1B0
:104A0000FF40C00F2BD018EE101A18EE900A01F0DC
:104A1000B1F900EE100A10EE100A6FEAD05010F053
:104A2000FF0F04BFBDEC028B10BD18EE900A00F022
:104A3000004110EE100A00F00040814204BFBDECBE
:104A4000028B10BD18EE101A10EE100ABDEC028B8E
:104A500061F31E0000EE900A30EE600A10BD18EE01
:104A6000900A4FF07F41B1EB400F1CBF18EE100AC7
:104A70005FEA4000C7D10120FBF769FEBDEC028B65
:104A8000BDE8104000F048B930B540F2FF742DED9C
:104A9000048BF0EE608A18EE901A85B0B0EE408A72
:104AA0009FED2B9B05468DED008B34EA115147D0CD
:104AB00053EC192B51EC180B00F0C8FD40D02A46DE
:104AC00051EC180B01F03FFA41EC180B18EE900A6C
:104AD0008DED008B34EA10501CD053EC192B51ECA7
:104AE000180B00F0B3FD2BD10220FBF730FE00F0D5
:104AF00003F910EE901A18EE900A8DED020B8DED71
:104B0000008B61F31E0003909DED020B05B0BDEC20
:104B1000048B30BD0220FBF71AFE00F0DDF810EE2A
:104B2000901A18EE900A8DED020B8DED008B61F35B
:104B30001E0003909DED020B05B0BDEC048B30BD53
:104B400005B0B0EE480AF0EE680ABDEC048B30BD4B
:104B5000000000000000000010B52DED020B2DED4F
:104B6000088B84B09DED0C0B51EC100B00F048FF4E
:104B700041EC180B9DED0C0B53EC182B51EC100B6A
:104B800000F098FF41EC190B0D989FED290B10F0E8
:104B9000004F53EC102B51EC190B9FED21AB9FED07
:104BA00022BB0ED000F0BCFD0ED953EC1B2B51ECF8
:104BB000190B00F0EFFE1CD214E000BF41EC180B03
:104BC00017E000F0ADFD06D253EC1A2B51EC180B98
:104BD00000F070FFF2E753EC1B2B51EC190B00F0C7
:104BE000D9FE06D853EC1A2B51EC180B00F072FCCE
:104BF000E4E78DED028B9DED0C0B18EE901A10EE94
:104C0000900A8DED000B61F31E0003909DED020BE9
:104C100004B0BDEC088B02B010BD00000000000025
:104C2000000000000000F03F000000000000E03F36
:104C3000000000000000E0BF10B52DED028BB0EECB
:104C4000408A18EE100A01F015F901EE100A18EE6C
:104C5000100AB7EE000A78EE410A10F0004F4FF04C
:104C60007F4010EE901A12D0B1F13F4F24BF10EEEA
:104C7000901AB0EB410F12D210EE901AB1F17C5F96
:104C80001CDD10EE901AB0EB410F17D314E0B1F118
:104C90003F4F07D910EE901AB0EB410F02D331EE1F
:104CA000401A0BE010EE901AB1F17C5F06DB10EEBB
:104CB000901AB0EB410F01D331EE001A18EE100A32
:104CC000BDEC028B11EE101A61F31E0000EE100A0B
:104CD00010BD0000000000009FED050B10B553EC67
:104CE000102B51EC100B00F057FD41EC100B10BDD8
:104CF00000000000000000709FED050B10B553ECA4
:104D0000102B51EC100B00F047FD41EC100B10BDC7
:104D10000000000000000010DFED020A80EEA00A93
:104D2000704700000000000010B5044691ED000B34
:104D3000FFF7BAFD84ED000A10BD10B5044690EDF2
:104D4000000B0846FFF7A0FE84ED000B10BD3038C5
:104D50000A2801D2012070470020704710EE100A87
:104D6000114910B5F1EE040A884201DDB0EE600A87
:104D7000B5EEC00AF1EE10FA01D29FED0C0A80EEFA
:104D8000201A9FED0B0A61EE000A80EE801A9FED5B
:104D9000090A21EE000AFFF74FFFBCEEC00A10EE31
:104DA000100A80B210BD00000000A040000000000A
:104DB0000000C84200FF7F4710B582B01446CDE91D
:104DC00000010023009A2360194B21F00040984213
:104DD0002ADA024328D0B0F5801FA8BF226810DA73
:104DE0009FED150B53EC102B9DED000B51EC100BB0
:104DF00000F0D2FCCDE900016FF0350221F0004057
:104E000022600F4B6FF31E5103EB205010442060C3
:104E100041F0FF5040F0005001909DED000B00BFAD
:104E200002B051EC100B10BD9DED000BF8E7000037
:104E30000000F07F00000000000000000000504370
:104E400002FCFFFF33B591B09DF84450002D48D0CF
:104E5000964C2078042804D1681E042801D8FDF758
:104E6000F9FE9349F1EE040ADFED921A9FED920AE2
:104E70009FED921A12980F2D33D2DFE805F0320819
:104E80000C1014345173949ABAD532E740000120C3
:104E900020708BA030E0022020708BA02CE003203B
:104EA00020708BA028E0042020708BA0FFF712F95F
:104EB0008BA0FFF70FF98FA0FFF70CF992A0FFF777
:104EC00009F9606900F0E0FE41EC100B96A153EC8B
:104ED000102B6846FBF7B0FA6846FFF7FBF8FDF7C2
:104EE000F7FD13B030BD052020707BA0FFF7F2F86E
:104EF00092A0FFF7EFF896A0FFF7ECF8A9E0207872
:104F00000528EED18DA0FFF7E5F894A0FFF7E2F8B1
:104F100098A0FFF7DFF813B0BDE83040FDF750BEB2
:104F20002078012802D003280ED092E0D4ED010AA7
:104F3000934930EE800A10EE100A84ED010A88428F
:104F400016DD9FED900A1EE0D4ED030A8E4930EE87
:104F5000800A10EE100A84ED030A884279DD9FED85
:104F60008B0A1DE020788A49012802D003280DD041
:104F70006FE0D4ED010A70EEC00A10EE900AC4EDA5
:104F8000010A884265DA84ED010A62E0D4ED030A81
:104F900070EEC00A10EE900AC4ED030A884258DA97
:104FA00084ED030A55E02078012852D19FED790A5B
:104FB000E9E72078012802D003280DD049E094EDDC
:104FC000020A30EE010A10EE100A84ED020A88424D
:104FD0003FDDC4ED020A3CE094ED040A30EE010A24
:104FE00010EE100A84ED040A884232DDC4ED040A92
:104FF0002FE02078012802D0032807D029E094ED83
:10500000020A30EE410A84ED020A17E094ED040A28
:10501000614930EE410A10EE100A84ED040A88421C
:1050200017DA84ED041A14E02278012A11D1A06065
:10503000884201DDC4ED020A94ED020AB5EEC00A11
:10504000F1EE10FA05D2C4ED021A02E02278042A29
:1050500004D013B0BDE8304000F0F6B8606188427B
:1050600001DDC4ED050A94ED050AB5EEC00AF1EEC6
:1050700010FA01D2C4ED051A94ED050AFDF7C2FD40
:10508000606900F001FE41EC100B27A153EC102BDE
:105090006846FBF7D1F96846FFF71CF815A0FFF743
:1050A00019F83EA0FFF716F81BE7000014000020D7
:1050B0000000A040000000000000C842CDCCCC3D64
:1050C0007061676520310000706167652032000003
:1050D00070616765203300007061676520340000EF
:1050E00066726571342E7478743D222D2D20487AB5
:1050F00022000000695F76616C2E7478743D22494D
:105100003A202D2D22000000715F76616C2E74789C
:10511000743D225365742056707020746F20537450
:105120006172742200000000616D70342E74787416
:105130003D22252E326620567070220074312E7466
:1051400078743D22556E6B6E6F776E220000000002
:105150007669732074322C300000000074322E7493
:1051600078743D224C6561726E696E672E2E2E2218
:10517000000000007669732074322C3100000000BA
:105180000024F4490024F4490080BB450080BB455D
:105190000000C84200247449CDCCCC3D715F7661DB
:1051A0006C2E7478743D22513A202D2D220000007F
:1051B000FEF72CF8FFF7B0F8FFF738F8FFF710F814
:1051C000FFF76CF8FFF786F840220F490F48FEF70B
:1051D00063FB0E48C06B0068016821F008010160A4
:1051E0000949402240390A48FEF756FB0848C06B7F
:1051F0000068016821F008010160FDF7EFFB00BFC6
:10520000FDF702FCFCE700006C000020F400002029
:10521000AC00002010B58CB0044630216846FBF786
:105220005AFAA5208DF800005A208DF82E008DF82E
:105230000140C8232F2269460248FEF7CEFD0CB07C
:1052400010BD0000AC00002010B54F4C2DED048BBC
:1052500090B020789FED4D9A05287DD2DFE800F0D0
:10526000910322504C00B0EE491AD4ED020A94ED9D
:10527000010AFDF731FC606800F006FD41EC100BFF
:1052800043A153EC102B6846FBF7D6F86846FEF7AF
:1052900021FFA06800F0F8FC41EC100B40A153EC9A
:1052A000102B1FE0DFED428AF0EE000AB0EE680A34
:1052B000FEF736FFB0EE408AB5EEC08AF1EE10FA86
:1052C00015DDB0EE491AF0EE480AB0EE680AFDF7B7
:1052D00003FC18EE100A00F0D7FC41EC100B35A1CE
:1052E00053EC102B6846FBF7A7F8684602E0FDF781
:1052F000EFFB34A0FEF7EEFE10B0BDEC048B10BD4A
:10530000D4ED040A94ED030AFEF70AFFB0EE408ADA
:10531000206900F0B9FC41EC100B2EA153EC102BCE
:105320006846FBF789F86846FEF7D4FEE06800F0AF
:10533000ABFC41EC100B2BA153EC102B6846FBF798
:105340007BF86846FEF7C6FEB5EEC08AF1EE10FAAD
:1053500013DD18EE100A00E013E02649884203DD51
:10536000FDF7B6FB24A0C5E7B0EE491AF0EE480AF7
:1053700094ED030AFDF7B0FBBEE7FDF7A9FB22A001
:10538000B8E7FDF7A5FBB7E7140000200000000018
:1053900074322E7478743D22252E3066220000006F
:1053A00074312E7478743D22252E3266220000005E
:1053B00000007A4474342E7478743D22252E3366AE
:1053C0002200000074342E7478743D224F4F522115
:1053D0002200000074342E7478743D22252E32662B
:1053E0002200000074362E7478743D22252E30661B
:1053F000220000000000A04074362E7478743D2214
:105400004D4158212200000074362E7478743D22DC
:105410004F4F52212200000010B500290AD0087811
:10542000002807D005487844FCF7CCFB002801D0C1
:10543000002010BD0248784410BD0000EA0E0000B4
:10544000E20E000010B500290AD00878002807D025
:1054500005487844FCF7B6FB002801D0002010BDB9
:105460000248784410BD0000CE0F0000C60F0000B7
:1054700021F00042A2F16052B2F5801F01F000431A
:1054800028BFD2F17F6C0BD95FEA001C43EAC2024D
:1054900042EB507018BF704728BF20F001007047E2
:1054A000B2F5801FBCBF184670474FEA410C1CF58F
:1054B000001F02D2084600F0D7BC70B500F016FA03
:1054C00000000089FFF7F6BF4FF00040A0F5800014
:1054D0007047000010B591EA030F48BF83F0004306
:1054E00000F1F082841A71EB030C05D2121943EB20
:1054F0000C03001B61EB0C01DFF824E14FEA1154AF
:10550000A4EB135C1EEA430F18BF9EEA445F73D0FE
:1055100023EA0E03DCF1200E21EA045143F4801348
:1055200032D322FA0CFE10EB0E0023FA0CFE41EBF4
:105530000E01CCF1200E03FA0EFE10EB0E0051F11D
:105540000001B1F5801FCCF1200E32D201EB0451E5
:1055500012FA0EF2BDE8104058BF7047401C38BF29
:105560005FEA420218BF7047002814BF20F0010014
:1055700041F100014FEA410313F5001F38BF7047A6
:10558000A1F1C04100F000BA012A43EB0302ACF1E3
:10559000200CDCF11F0E32BF4FF0000E23FA0CF38B
:1055A00010EB030041EB0451B4EB115FD0D0A1EB41
:1055B000045101F5801149085FEA300001EB045104
:1055C0000ED350F1000038BF12FA0EFE08D1BDE82C
:1055D0001040C9E7401C38BF5FEA4202CAD1C3E7A6
:1055E000BDE810404FEA410313F5001F38BF704774
:1055F000A1F1C04100F0C8B99EEA445F08D011EAA9
:105600005E0FBDE8104004BF01F00041002070476C
:10561000BDE8104070B500F069F900BF64FBBE3E04
:105620000000E0FF02494FF0000000F05ABC00BF4C
:105630000000F87F491058BFC1F140415B1058BFCE
:10564000C3F140438B42EFF30080704751EA030CF3
:1056500017D41CF5801F58BFBCF5801F00F10680D1
:10566000994218BF704708BF9042704707D711F59D
:10567000801F58BF13F5801F19D499427047894283
:1056800070471CF5801F08D5BCF5801FF7D58B42ED
:1056900018BF704708BF824270474FF4001C1CEBD4
:1056A000410F38BF1CEB430F01D28B42704770B5DE
:1056B00000F01CF9922449004FF000514FF0805344
:1056C000FFF7B8BF4FEA1153A3F58063D3F11E0370
:1056D000A8BFD3F1200C08DB4FF0004242EAC12200
:1056E00052EA505232FA03F0704709420BD4102BA1
:1056F000C4BF0020704703F5787CBCF1FF3F05D0A4
:105700004FF0FF3070474FF00000704770B500F069
:10571000EDF800BF4992248000207047F0E70000B8
:1057200051EA030C17D41CF5801F58BFBCF5801F2D
:1057300000F10680994218BF704708BF9042704739
:1057400007D711F5801F58BF13F5801F19D4994250
:105750007047894270471CF5801F08D5BCF5801F33
:10576000F7D58B4218BF704708BF824270474FF48D
:10577000001C1CEB410F38BF1CEB430F01D28B42C6
:10578000704770B500F0B2F8922449004FF0005114
:105790004FF08053FFF74EBFDFF848C170B51CEAE9
:1057A000111E1EBF1CEA13159EEA0C0F95EA0C0F82
:1057B00000F06F8081EA030423EA4C134EEAD47EA2
:1057C00021EA4C1141F4801143F48013AE44A1FB53
:1057D000024CA0FB0365AEF17F7E361955EB0C053C
:1057E000A1FB034C4CF10003A0FB021C16EB0C06C2
:1057F000654153F10003094218BF46F0010613F456
:10580000007F0BD14FEA03314FEA0530340341EA00
:10581000155140EA16506FF003020AE04FEAC32127
:105820004FEAC520F40241EA555140EA56506FF064
:10583000020202EB2E4201EB025585EACE710AD03C
:105840005FEA440C18BF24F0004450F1000041F11D
:10585000000120EAD47040F2FE7C624500D270BDA7
:10586000A84214BF4FF080444FF04044002E08BFC0
:105870000024BEF1806FA8BFA1F1C041BDE8704017
:1058800080F282804FF0000001F1C04101F0004140
:1058900070479EEA0C0F0CEA131518BF95EA0C0F1F
:1058A00006D04FF0000081EA030E0EF0004170BDFB
:1058B00000F01CF88900013E00F007B800F009B8BC
:1058C0004FEA430C5FEA5C5C08D081EA030100F018
:1058D0005BB84FEA410C5FEA5C5CF6D14FF0000028
:1058E000014970470000FF070000F87F0EF1020E2B
:1058F0002EF0030E5EF8046B364205D4012A43EB0A
:10590000030515F5001F12D8012841EB010C1CF509
:10591000001F0CD80ED14FEAD17C15F5001F0CEBFF
:105920004C0C0CF1020C08BF4CEBD37C04E04FF0A4
:10593000080C01E04FEAD37C0CEB4C0526FA05F687
:1059400006F00706B6F1040C06D20EEB860CBDE895
:1059500070404CF0010C6047DFE80CF0090B0202CC
:105960004FF000414FF00000A1F5002170BD194635
:105970001046012851EB010418BFD4F5001484BF70
:10598000002001F0004170BD0808A0F500114FEAA9
:105990003101704753EA010C17D41CF5801F58BF22
:1059A000BCF5801F00F106808B4218BF704708BF0E
:1059B0008242704707D713F5801F58BF11F5801F2B
:1059C00019D48B4270479B4270471CF5801F08D545
:1059D000BCF5801FF7D5994218BF704708BF9042A9
:1059E00070474FF4001C1CEB430F38BF1CEB410FFA
:1059F00001D2994270470FB40CBC03BCFFF7C1BE83
:105A00005FEA410C5FEA5C5CACF580635B1C39D4F7
:105A1000D3F1340240F34580B2F1200314DA4FF0A1
:105A2000010C0CFA02FCACF101030340B3EB5C0285
:105A300020EA030008BF10EA0C0F98BF704710EB74
:105A40000C0041F1000170470AD0C3F1200201FAB5
:105A500002FC012821FA03F101FA03F14CF10000E4
:105A60004FF0010C0CFA03FCACF10103B0F1004F54
:105A700021EA030108BF11EA0C0F4FF0000088BFB4
:105A800061447047B3F1FF3F28BF50EAC12C01F0D9
:105A900000414FF0000084BF41F07C5141F470019F
:105AA0007047B3F5806FB8BF704770B5FFF71EFF42
:105AB00040DBB6BE10B591EA030F48BF83F0004348
:105AC0003FF510AD841A71EB030C07D212198CF05C
:105AD000004C43EB0C03001B61EB0C01DFF8A4E16D
